{
  "_format": "hh-sol-artifact-1",
  "contractName": "ClaimFaucet",
  "sourceName": "contracts/ClaimFauset.sol",
  "abi": [
    {
      "inputs": [
        {
          "internalType": "string",
          "name": "_name",
          "type": "string"
        },
        {
          "internalType": "string",
          "name": "_symbol",
          "type": "string"
        }
      ],
      "stateMutability": "nonpayable",
      "type": "constructor"
    },
    {
      "anonymous": false,
      "inputs": [
        {
          "indexed": true,
          "internalType": "address",
          "name": "owner",
          "type": "address"
        },
        {
          "indexed": true,
          "internalType": "address",
          "name": "spender",
          "type": "address"
        },
        {
          "indexed": false,
          "internalType": "uint256",
          "name": "amount",
          "type": "uint256"
        }
      ],
      "name": "Approval",
      "type": "event"
    },
    {
      "anonymous": false,
      "inputs": [
        {
          "indexed": true,
          "internalType": "address",
          "name": "user",
          "type": "address"
        },
        {
          "indexed": false,
          "internalType": "uint256",
          "name": "_amount",
          "type": "uint256"
        },
        {
          "indexed": false,
          "internalType": "uint256",
          "name": "_time",
          "type": "uint256"
        }
      ],
      "name": "TokenClaimSuccessful",
      "type": "event"
    },
    {
      "anonymous": false,
      "inputs": [
        {
          "indexed": true,
          "internalType": "address",
          "name": "sender",
          "type": "address"
        },
        {
          "indexed": true,
          "internalType": "address",
          "name": "reciever",
          "type": "address"
        },
        {
          "indexed": false,
          "internalType": "uint256",
          "name": "amount",
          "type": "uint256"
        }
      ],
      "name": "Transfer",
      "type": "event"
    },
    {
      "inputs": [],
      "name": "CLAIMABLE_AMOUNT",
      "outputs": [
        {
          "internalType": "uint256",
          "name": "",
          "type": "uint256"
        }
      ],
      "stateMutability": "view",
      "type": "function"
    },
    {
      "inputs": [
        {
          "internalType": "address",
          "name": "_owner",
          "type": "address"
        },
        {
          "internalType": "address",
          "name": "_delegate",
          "type": "address"
        }
      ],
      "name": "allowance",
      "outputs": [
        {
          "internalType": "uint256",
          "name": "",
          "type": "uint256"
        }
      ],
      "stateMutability": "view",
      "type": "function"
    },
    {
      "inputs": [
        {
          "internalType": "address",
          "name": "_delegate",
          "type": "address"
        },
        {
          "internalType": "uint256",
          "name": "_amountOfToken",
          "type": "uint256"
        }
      ],
      "name": "approve",
      "outputs": [],
      "stateMutability": "nonpayable",
      "type": "function"
    },
    {
      "inputs": [
        {
          "internalType": "address",
          "name": "_address",
          "type": "address"
        }
      ],
      "name": "balanceOf",
      "outputs": [
        {
          "internalType": "uint256",
          "name": "",
          "type": "uint256"
        }
      ],
      "stateMutability": "view",
      "type": "function"
    },
    {
      "inputs": [],
      "name": "claimToken",
      "outputs": [],
      "stateMutability": "nonpayable",
      "type": "function"
    },
    {
      "inputs": [],
      "name": "decimal",
      "outputs": [
        {
          "internalType": "uint8",
          "name": "",
          "type": "uint8"
        }
      ],
      "stateMutability": "pure",
      "type": "function"
    },
    {
      "inputs": [],
      "name": "getSymbol",
      "outputs": [
        {
          "internalType": "string",
          "name": "",
          "type": "string"
        }
      ],
      "stateMutability": "view",
      "type": "function"
    },
    {
      "inputs": [],
      "name": "getTokenName",
      "outputs": [
        {
          "internalType": "string",
          "name": "",
          "type": "string"
        }
      ],
      "stateMutability": "view",
      "type": "function"
    },
    {
      "inputs": [],
      "name": "getTotalSupply",
      "outputs": [
        {
          "internalType": "uint256",
          "name": "",
          "type": "uint256"
        }
      ],
      "stateMutability": "view",
      "type": "function"
    },
    {
      "inputs": [],
      "name": "getUserData",
      "outputs": [
        {
          "internalType": "uint256",
          "name": "",
          "type": "uint256"
        },
        {
          "internalType": "uint256",
          "name": "",
          "type": "uint256"
        }
      ],
      "stateMutability": "view",
      "type": "function"
    },
    {
      "inputs": [
        {
          "internalType": "address",
          "name": "_reciever",
          "type": "address"
        },
        {
          "internalType": "uint256",
          "name": "_amountOfToken",
          "type": "uint256"
        }
      ],
      "name": "transfer",
      "outputs": [],
      "stateMutability": "nonpayable",
      "type": "function"
    },
    {
      "inputs": [
        {
          "internalType": "address",
          "name": "_owner",
          "type": "address"
        },
        {
          "internalType": "address",
          "name": "_buyer",
          "type": "address"
        },
        {
          "internalType": "uint256",
          "name": "_amountOfToken",
          "type": "uint256"
        }
      ],
      "name": "transferFrom",
      "outputs": [],
      "stateMutability": "nonpayable",
      "type": "function"
    }
  ],
  "bytecode": "0x608060405234801561001057600080fd5b50604051611eab380380611eab8339818101604052810190610032919061036d565b818181600090816100439190610606565b5080600190816100539190610606565b5033600360006101000a81548173ffffffffffffffffffffffffffffffffffffffff021916908373ffffffffffffffffffffffffffffffffffffffff1602179055506100ca620f4240600360009054906101000a900473ffffffffffffffffffffffffffffffffffffffff166100d360201b60201c565b505050506107a7565b6000670de0b6b3a7640000836100e99190610707565b905080600460008473ffffffffffffffffffffffffffffffffffffffff1673ffffffffffffffffffffffffffffffffffffffff168152602001908152602001600020546101369190610749565b600460008473ffffffffffffffffffffffffffffffffffffffff1673ffffffffffffffffffffffffffffffffffffffff16815260200190815260200160002081905550806002546101879190610749565b6002819055508173ffffffffffffffffffffffffffffffffffffffff16600073ffffffffffffffffffffffffffffffffffffffff167fddf252ad1be2c89b69c2b068fc378daa952ba7f163c4a11628f55a4df523b3ef836040516101eb919061078c565b60405180910390a3505050565b6000604051905090565b600080fd5b600080fd5b600080fd5b600080fd5b6000601f19601f8301169050919050565b7f4e487b7100000000000000000000000000000000000000000000000000000000600052604160045260246000fd5b61025f82610216565b810181811067ffffffffffffffff8211171561027e5761027d610227565b5b80604052505050565b60006102916101f8565b905061029d8282610256565b919050565b600067ffffffffffffffff8211156102bd576102bc610227565b5b6102c682610216565b9050602081019050919050565b60005b838110156102f15780820151818401526020810190506102d6565b60008484015250505050565b600061031061030b846102a2565b610287565b90508281526020810184848401111561032c5761032b610211565b5b6103378482856102d3565b509392505050565b600082601f8301126103545761035361020c565b5b81516103648482602086016102fd565b91505092915050565b6000806040838503121561038457610383610202565b5b600083015167ffffffffffffffff8111156103a2576103a1610207565b5b6103ae8582860161033f565b925050602083015167ffffffffffffffff8111156103cf576103ce610207565b5b6103db8582860161033f565b9150509250929050565b600081519050919050565b7f4e487b7100000000000000000000000000000000000000000000000000000000600052602260045260246000fd5b6000600282049050600182168061043757607f821691505b60208210810361044a576104496103f0565b5b50919050565b60008190508160005260206000209050919050565b60006020601f8301049050919050565b600082821b905092915050565b6000600883026104b27fffffffffffffffffffffffffffffffffffffffffffffffffffffffffffffffff82610475565b6104bc8683610475565b95508019841693508086168417925050509392505050565b6000819050919050565b6000819050919050565b60006105036104fe6104f9846104d4565b6104de565b6104d4565b9050919050565b6000819050919050565b61051d836104e8565b6105316105298261050a565b848454610482565b825550505050565b600090565b610546610539565b610551818484610514565b505050565b5b818110156105755761056a60008261053e565b600181019050610557565b5050565b601f8211156105ba5761058b81610450565b61059484610465565b810160208510156105a3578190505b6105b76105af85610465565b830182610556565b50505b505050565b600082821c905092915050565b60006105dd600019846008026105bf565b1980831691505092915050565b60006105f683836105cc565b9150826002028217905092915050565b61060f826103e5565b67ffffffffffffffff81111561062857610627610227565b5b610632825461041f565b61063d828285610579565b600060209050601f831160018114610670576000841561065e578287015190505b61066885826105ea565b8655506106d0565b601f19841661067e86610450565b60005b828110156106a657848901518255600182019150602085019450602081019050610681565b868310156106c357848901516106bf601f8916826105cc565b8355505b6001600288020188555050505b505050505050565b7f4e487b7100000000000000000000000000000000000000000000000000000000600052601160045260246000fd5b6000610712826104d4565b915061071d836104d4565b925082820261072b816104d4565b91508282048414831517610742576107416106d8565b5b5092915050565b6000610754826104d4565b915061075f836104d4565b9250828201905080821115610777576107766106d8565b5b92915050565b610786816104d4565b82525050565b60006020820190506107a1600083018461077d565b92915050565b6116f5806107b66000396000f3fe608060405234801561001057600080fd5b50600436106100b45760003560e01c806376809ce31161007157806376809ce314610168578063862b092b14610186578063a9059cbb146101a4578063c4e41b22146101c0578063dd62ed3e146101de578063e741bec31461020e576100b4565b8063095ea7b3146100b957806315070401146100d557806322e8c87d146100f357806323b872dd146101125780634451d89f1461012e57806370a0823114610138575b600080fd5b6100d360048036038101906100ce9190611108565b61022c565b005b6100dd610397565b6040516100ea91906111d8565b60405180910390f35b6100fb610429565b604051610109929190611209565b60405180910390f35b61012c60048036038101906101279190611232565b6104a1565b005b61013661086d565b005b610152600480360381019061014d9190611285565b610b78565b60405161015f91906112b2565b60405180910390f35b610170610bc1565b60405161017d91906112e9565b60405180910390f35b61018e610bca565b60405161019b91906111d8565b60405180910390f35b6101be60048036038101906101b99190611108565b610c5c565b005b6101c8610e9a565b6040516101d591906112b2565b60405180910390f35b6101f860048036038101906101f39190611304565b610ea4565b60405161020591906112b2565b60405180910390f35b610216610f2b565b60405161022391906112b2565b60405180910390f35b80600460003373ffffffffffffffffffffffffffffffffffffffff1673ffffffffffffffffffffffffffffffffffffffff16815260200190815260200160002054116102ad576040517f08c379a00000000000000000000000000000000000000000000000000000000081526004016102a490611390565b60405180910390fd5b80600560003373ffffffffffffffffffffffffffffffffffffffff1673ffffffffffffffffffffffffffffffffffffffff16815260200190815260200160002060008473ffffffffffffffffffffffffffffffffffffffff1673ffffffffffffffffffffffffffffffffffffffff168152602001908152602001600020819055508173ffffffffffffffffffffffffffffffffffffffff163373ffffffffffffffffffffffffffffffffffffffff167f8c5be1e5ebec7d5bd14f71427d1e84f3dd0314c0f7b2291e5b200ac8c7c3b9258360405161038b91906112b2565b60405180910390a35050565b6060600180546103a6906113df565b80601f01602080910402602001604051908101604052809291908181526020018280546103d2906113df565b801561041f5780601f106103f45761010080835404028352916020019161041f565b820191906000526020600020905b81548152906001019060200180831161040257829003601f168201915b5050505050905090565b6000806000600660003373ffffffffffffffffffffffffffffffffffffffff1673ffffffffffffffffffffffffffffffffffffffff1681526020019081526020016000206040518060400160405290816000820154815260200160018201548152505090508060000151816020015192509250509091565b600073ffffffffffffffffffffffffffffffffffffffff168373ffffffffffffffffffffffffffffffffffffffff1603610510576040517f08c379a00000000000000000000000000000000000000000000000000000000081526004016105079061145c565b60405180910390fd5b600073ffffffffffffffffffffffffffffffffffffffff168273ffffffffffffffffffffffffffffffffffffffff160361057f576040517f08c379a00000000000000000000000000000000000000000000000000000000081526004016105769061145c565b60405180910390fd5b600460008473ffffffffffffffffffffffffffffffffffffffff1673ffffffffffffffffffffffffffffffffffffffff168152602001908152602001600020548111156105cb57600080fd5b600560008473ffffffffffffffffffffffffffffffffffffffff1673ffffffffffffffffffffffffffffffffffffffff16815260200190815260200160002060003373ffffffffffffffffffffffffffffffffffffffff1673ffffffffffffffffffffffffffffffffffffffff1681526020019081526020016000205481111561065457600080fd5b80600460008573ffffffffffffffffffffffffffffffffffffffff1673ffffffffffffffffffffffffffffffffffffffff1681526020019081526020016000205461069f91906114ab565b600460008573ffffffffffffffffffffffffffffffffffffffff1673ffffffffffffffffffffffffffffffffffffffff1681526020019081526020016000208190555080600560008573ffffffffffffffffffffffffffffffffffffffff1673ffffffffffffffffffffffffffffffffffffffff16815260200190815260200160002060003373ffffffffffffffffffffffffffffffffffffffff1673ffffffffffffffffffffffffffffffffffffffff168152602001908152602001600020600082825461076e91906114ab565b9250508190555080600460008473ffffffffffffffffffffffffffffffffffffffff1673ffffffffffffffffffffffffffffffffffffffff168152602001908152602001600020546107c091906114df565b600460008473ffffffffffffffffffffffffffffffffffffffff1673ffffffffffffffffffffffffffffffffffffffff168152602001908152602001600020819055508173ffffffffffffffffffffffffffffffffffffffff168373ffffffffffffffffffffffffffffffffffffffff167fddf252ad1be2c89b69c2b068fc378daa952ba7f163c4a11628f55a4df523b3ef8360405161086091906112b2565b60405180910390a3505050565b600073ffffffffffffffffffffffffffffffffffffffff163373ffffffffffffffffffffffffffffffffffffffff16036108dc576040517f08c379a00000000000000000000000000000000000000000000000000000000081526004016108d39061155f565b60405180910390fd5b600760003373ffffffffffffffffffffffffffffffffffffffff1673ffffffffffffffffffffffffffffffffffffffff16815260200190815260200160002060009054906101000a900460ff1615610a4c576000600660003373ffffffffffffffffffffffffffffffffffffffff1673ffffffffffffffffffffffffffffffffffffffff168152602001908152602001600020905062015180816000015461098491906114df565b42116109c5576040517f08c379a00000000000000000000000000000000000000000000000000000000081526004016109bc906115cb565b60405180910390fd5b428160000181905550600a8160010160008282546109e391906114df565b925050819055506109f5600a33610f30565b3373ffffffffffffffffffffffffffffffffffffffff167f9cb9d943e6592935c9a9b6a2e08e875a8b88cbf67f2a2bd6d36294c3f94297cb600a42604051610a3e929190611209565b60405180910390a250610b76565b6001600760003373ffffffffffffffffffffffffffffffffffffffff1673ffffffffffffffffffffffffffffffffffffffff16815260200190815260200160002060006101000a81548160ff021916908315150217905550610aaf600a33610f30565b610ab7611055565b42816000018181525050600a81602001818152505080600660003373ffffffffffffffffffffffffffffffffffffffff1673ffffffffffffffffffffffffffffffffffffffff16815260200190815260200160002060008201518160000155602082015181600101559050503373ffffffffffffffffffffffffffffffffffffffff167f9cb9d943e6592935c9a9b6a2e08e875a8b88cbf67f2a2bd6d36294c3f94297cb600a42604051610b6c929190611209565b60405180910390a2505b565b6000600460008373ffffffffffffffffffffffffffffffffffffffff1673ffffffffffffffffffffffffffffffffffffffff168152602001908152602001600020549050919050565b60006012905090565b606060008054610bd9906113df565b80601f0160208091040260200160405190810160405280929190818152602001828054610c05906113df565b8015610c525780601f10610c2757610100808354040283529160200191610c52565b820191906000526020600020905b815481529060010190602001808311610c3557829003601f168201915b5050505050905090565b600073ffffffffffffffffffffffffffffffffffffffff168273ffffffffffffffffffffffffffffffffffffffff1603610ccb576040517f08c379a0000000000000000000000000000000000000000000000000000000008152600401610cc29061145c565b60405180910390fd5b600460003373ffffffffffffffffffffffffffffffffffffffff1673ffffffffffffffffffffffffffffffffffffffff16815260200190815260200160002054811115610d4d576040517f08c379a0000000000000000000000000000000000000000000000000000000008152600401610d449061165d565b60405180910390fd5b80600460003373ffffffffffffffffffffffffffffffffffffffff1673ffffffffffffffffffffffffffffffffffffffff1681526020019081526020016000206000828254610d9c91906114ab565b9250508190555080600460008473ffffffffffffffffffffffffffffffffffffffff1673ffffffffffffffffffffffffffffffffffffffff16815260200190815260200160002054610dee91906114df565b600460008473ffffffffffffffffffffffffffffffffffffffff1673ffffffffffffffffffffffffffffffffffffffff168152602001908152602001600020819055508173ffffffffffffffffffffffffffffffffffffffff163373ffffffffffffffffffffffffffffffffffffffff167fddf252ad1be2c89b69c2b068fc378daa952ba7f163c4a11628f55a4df523b3ef83604051610e8e91906112b2565b60405180910390a35050565b6000600254905090565b6000600560008473ffffffffffffffffffffffffffffffffffffffff1673ffffffffffffffffffffffffffffffffffffffff16815260200190815260200160002060008373ffffffffffffffffffffffffffffffffffffffff1673ffffffffffffffffffffffffffffffffffffffff16815260200190815260200160002054905092915050565b600a81565b6000670de0b6b3a764000083610f46919061167d565b905080600460008473ffffffffffffffffffffffffffffffffffffffff1673ffffffffffffffffffffffffffffffffffffffff16815260200190815260200160002054610f9391906114df565b600460008473ffffffffffffffffffffffffffffffffffffffff1673ffffffffffffffffffffffffffffffffffffffff1681526020019081526020016000208190555080600254610fe491906114df565b6002819055508173ffffffffffffffffffffffffffffffffffffffff16600073ffffffffffffffffffffffffffffffffffffffff167fddf252ad1be2c89b69c2b068fc378daa952ba7f163c4a11628f55a4df523b3ef8360405161104891906112b2565b60405180910390a3505050565b604051806040016040528060008152602001600081525090565b600080fd5b600073ffffffffffffffffffffffffffffffffffffffff82169050919050565b600061109f82611074565b9050919050565b6110af81611094565b81146110ba57600080fd5b50565b6000813590506110cc816110a6565b92915050565b6000819050919050565b6110e5816110d2565b81146110f057600080fd5b50565b600081359050611102816110dc565b92915050565b6000806040838503121561111f5761111e61106f565b5b600061112d858286016110bd565b925050602061113e858286016110f3565b9150509250929050565b600081519050919050565b600082825260208201905092915050565b60005b83811015611182578082015181840152602081019050611167565b60008484015250505050565b6000601f19601f8301169050919050565b60006111aa82611148565b6111b48185611153565b93506111c4818560208601611164565b6111cd8161118e565b840191505092915050565b600060208201905081810360008301526111f2818461119f565b905092915050565b611203816110d2565b82525050565b600060408201905061121e60008301856111fa565b61122b60208301846111fa565b9392505050565b60008060006060848603121561124b5761124a61106f565b5b6000611259868287016110bd565b935050602061126a868287016110bd565b925050604061127b868287016110f3565b9150509250925092565b60006020828403121561129b5761129a61106f565b5b60006112a9848285016110bd565b91505092915050565b60006020820190506112c760008301846111fa565b92915050565b600060ff82169050919050565b6112e3816112cd565b82525050565b60006020820190506112fe60008301846112da565b92915050565b6000806040838503121561131b5761131a61106f565b5b6000611329858286016110bd565b925050602061133a858286016110bd565b9150509250929050565b7f42616c616e6365206973206e6f7420656e6f7567680000000000000000000000600082015250565b600061137a601583611153565b915061138582611344565b602082019050919050565b600060208201905081810360008301526113a98161136d565b9050919050565b7f4e487b7100000000000000000000000000000000000000000000000000000000600052602260045260246000fd5b600060028204905060018216806113f757607f821691505b60208210810361140a576114096113b0565b5b50919050565b7f41646472657373206973206e6f7420616c6c6f77656400000000000000000000600082015250565b6000611446601683611153565b915061145182611410565b602082019050919050565b6000602082019050818103600083015261147581611439565b9050919050565b7f4e487b7100000000000000000000000000000000000000000000000000000000600052601160045260246000fd5b60006114b6826110d2565b91506114c1836110d2565b92508282039050818111156114d9576114d861147c565b5b92915050565b60006114ea826110d2565b91506114f5836110d2565b925082820190508082111561150d5761150c61147c565b5b92915050565b7f5a65726f2061646472657373206e6f7420616c6c6f7765640000000000000000600082015250565b6000611549601883611153565b915061155482611513565b602082019050919050565b600060208201905081810360008301526115788161153c565b9050919050565b7f596f7520636c61696d206f6e636520616674657220323420686f757273000000600082015250565b60006115b5601d83611153565b91506115c08261157f565b602082019050919050565b600060208201905081810360008301526115e4816115a8565b9050919050565b7f596f752063616e27742074616b65206d6f7265207468616e207768617420697360008201527f206176616c6961626c6500000000000000000000000000000000000000000000602082015250565b6000611647602a83611153565b9150611652826115eb565b604082019050919050565b600060208201905081810360008301526116768161163a565b9050919050565b6000611688826110d2565b9150611693836110d2565b92508282026116a1816110d2565b915082820484148315176116b8576116b761147c565b5b509291505056fea2646970667358221220fc5d800b6f0061de86b7c7f18bb5bb125bfaf68b8f38d7f586bda88d8c3c41fd64736f6c634300081b0033",
  "linkReferences": {},
  "deployedLinkReferences": {}
}